:060000000A128A11142A05
:100400008A018A140F3982073F3406345B344F3433
:1004100066346D347D3407347F346F3477347C3404
:1004200039345E347934713422223B224222031360
:100430008312552206186C228618702205080022A5
:100440008700192A03178316880189010313831271
:100450008501860187018801031383160510851025
:1004600005118511870106148614081088100811DB
:10047000881188130800031383160F140F168F12A8
:100480000F1708000313831681110115811401143D
:100490008112031383123D3081000B1108000313F6
:1004A00083123D3081000B1108000B1D552A4F228D
:1004B000A00AA01C0800A01D0800A001880A612253
:1004C000080008080502031966220800881F6A222E
:1004D000881308008817080006186C2A850A080087
:0804E0008618702A850308004C
:04400E00C430FF3F7C
:00000001FF
