:060000000A128A11142A05
:100400008A018A140F3982073F3406345B344F3433
:1004100066346D347D3407347F346F3477347C3404
:1004200039345E347934713422223C22432203135E
:100430008312562206186C22861870222108002288
:100440008700192A03178316880189010313831271
:100450008501860187018801890103138316051030
:10046000851005118511870106148614081088105F
:100470000811881109100800031383160F140F16B2
:100480008F120F17080003138316811101158114B1
:1004900001148112031383123D3081000B110800F7
:1004A000031383123D3081000B1108000B1D562AE7
:1004B0005022A00A850AA01C0800A01D0800A00167
:1004C000880A63220800080821020319682208002C
:1004D0008801A001890A080006186C2AA10A0800F0
:0804E0008618702AA103080030
:04400E00C430FF3F7C
:00000001FF
