:060000000A128A110E290C
:100200008A010A140F3982073F3406345B344F34B5
:1002100066346D347D3407347F346F341A212C21D9
:10022000031383120618332186183721080800218A
:10023000870012290317831688018901031383128B
:1002400085018601870188010313831685018701D3
:100250008801061486140800031383160F140F1662
:100260008F120F17080006183329880A080086180D
:0602700037298803080095
:04400E00C430FF3F7C
:00000001FF
